:020000040800F2
:10000000A0340120F90200080103000803030008DE
:1000100005030008070300080903000800000000AA
:100020000000000000000000000000004102000885
:100030000D0300080000000095020008E11400080C
:100040001303000813030008130300081303000838
:1000500013030008130300084D10000813030008E1
:100060001303000813030008130300081303000818
:100070001303000813030008130300081303000808
:1000800013030008130300081303000813030008F8
:1000900013030008130300081303000813030008E8
:1000A00013030008130300081303000813030008D8
:1000B00013030008130300081303000813030008C8
:1000C00013030008130300081303000813030008B8
:1000D00013030008130300081303000813030008A8
:1000E0001303000813030008130300081303000898
:1000F0001303000813030008130300081303000888
:100100001303000813030008130300081303000877
:100110001303000813030008130300081303000867
:100120001303000813030008130300081303000857
:100130001303000813030008130300081303000847
:100140001303000813030008130300081303000837
:100150001303000813030008130300081303000827
:100160001303000813030008130300081303000817
:100170001303000813030008130300080000000025
:10018000130300081303000800F002F800F049F818
:100190000AA090E8000C82448344AAF10107DA45E2
:1001A00001D100F03EF8AFF2090EBAE80F0013F0EB
:1001B000010F18BFFB1A43F001031847F42C00008D
:1001C000142D0000103A24BF78C878C1FAD852071D
:1001D00024BF30C830C144BF04680C6070470000C1
:1001E0000023002400250026103A28BF78C1FBD840
:1001F000520728BF30C148BF0B607047732900F019
:10020000A681002070471FB502F02EFE9DE8030076
:1002100000F00EFD00F022FA1FBD10B500F087FAC5
:1002200010BD00F0DEFA1146FFF7EDFF01F086FB8E
:1002300000F0CEFC03B4FFF7F0FF03BC00F06AFE51
:100240002A4B19680868B0E8F04F80F30988BFF3BB
:100250006F8F4FF0000080F311887047000000009E
:1002600006480068006880F3088862B661B6BFF38C
:100270004F8FBFF36F8F00DF00BF00BF08ED00E0BE
:10028000DFF80C00016841F470010160704700BFA5
:1002900088ED00E0EFF30980BFF36F8F134B1A680E
:1002A0001EF0100F08BF20ED108A20E9F04F1060FB
:1002B00008B44FF0500080F31188BFF34F8FBFF3A5
:1002C0006F8F02F0BBF84FF0000080F3118808BC7C
:1002D00019680868B0E8F04F1EF0100F08BFB0ECC6
:1002E000108A80F30988BFF36F8F704708000020E1
:1002F000EFF3058070470000094880470948004730
:10030000FEE7FEE7FEE7FEE7FEE7FEE7FEE7FEE7C5
:10031000FEE7FEE704480549054A064B7047000022
:10032000A515000889010008A02E0120A034012095
:10033000A0300120A03001200FB4044910B503AA59
:10034000029800F009F910BC5DF814FB942D01200F
:100350002DE9F0410E460446002020622046E16867
:10036000884730B3252805D0D4E901219047206A79
:10037000401CF2E7E168204600278847050018D0B6
:10038000A5F14100192802D820354FF40067324604
:10039000294620462760FFF731FF40B1012804D0ED
:1003A000F61D26F007060836D8E7361DD6E728469C
:1003B000DAE7206ABDE8F08170B50C460546012AEF
:1003C00005D02878800600D5EA69002302E00123E1
:1003D00005E05B1C934202D2E05C0028F9D1A869D9
:1003E000E618C01AA861286A184428622846AFF3A4
:1003F000008004E0D5E9012114F8010B9047B442D4
:10040000F8D32846AFF3008070BD032A40F2308055
:1004100010F0030C00F0158011F8013BBCF1020F45
:10042000624498BF11F801CB00F8013B38BF11F8C6
:10043000013BA2F1040298BF00F801CB38BF00F8DD
:10044000013B11F0030300F09980083AC0F00880E6
:1004500051F8043B083A51F804CBA0E80810F5E73E
:10046000121D5CBF51F8043B40F8043BAFF3008021
:10047000D20724BF11F8013B11F801CB48BF11F896
:10048000012B24BF00F8013B00F801CB48BF00F866
:10049000012B704702F0FF0343EA032242EA0242C3
:1004A00000F0A0B84FF0013C50F8042B51F8043B89
:1004B0009A4221D1A2EB0C03934313EACC1317D138
:1004C00050F8042B51F8043B9A4215D1A2EB0C03CF
:1004D000934313EACC130BD150F8042B51F8043B8F
:1004E0009A4209D1A2EB0C03934313EACC13DBD05D
:1004F0004FF00000704700BFD01A01BAB1FA81F185
:1005000001F0180122FA01F0CB40C1F12001DBB269
:10051000C0B2C01A2CFA01F3D11A914311EAC311E7
:10052000E6D1704770477047704710B5436913B103
:10053000AFF3008001E0FFF73FFF012010BD12780C
:1005400000F124010A7000224A700122EDE71168CF
:100550004FF0FF32E9E70000074B70B50D467B44D2
:1005600000F065F80446284600F074F810B14FF02A
:10057000FF3070BD204670BDBF13000010B5203A9B
:10058000C0F00B80B1E81850203AA0E81850B1E84C
:100590001850A0E81850BFF4F5AF5FEA027C24BF02
:1005A000B1E81850A0E8185044BF18C918C0BDE8F9
:1005B00010405FEA827C24BF51F8043B40F8043BC2
:1005C00008BF7047D20728BF31F8023B48BF11F877
:1005D000012B28BF20F8023B48BF00F8012B7047D1
:1005E0004FF000020429C0F0128010F0030C00F05C
:1005F000D380CCF1040CBCF1020F18BF00F8012B22
:10060000A8BF20F8022BA1EB0C0100F0C5B85FEAEF
:10061000C17C24BF00F8012B00F8012B48BF00F873
:10062000012B704701694A1C02610878704700B5C8
:100630008FB0CDE901310021059105497944CDE91B
:10064000031011466846FFF783FE0FB000BD00009F
:10065000E5FFFFFF007B00F08000704710B54248C7
:10066000542100F097F84148542100F093F8404895
:10067000542100F08FF83F493B483C4A3F4B08600B
:100680003D490A603A491960531C0365481C1065CE
:10069000012008653B48344A39A1784400F0FCF950
:1006A00020B9384878440A3800F09BFA37482F4A76
:1006B00035A1784400F0F0F920B9344878440A387C
:1006C00000F08FFA32482A4A2FA1784400F0E4F96A
:1006D00020B92F4878440A3800F083FA4023224892
:1006E000DC000021224600F0B3F920B1254878440F
:1006F000543800F076FA1D4822464023002100F0CD
:10070000A7F920B121487844543800F06AFA184813
:1007100022461023002100F09BF9002806D01C4837
:100720007844BDE81040563800F05BBA10BD104860
:1007300070B5006D20F001040B4800F023FA0B485F
:1007400000F020FA0A4800F01DFA09E0206D20F0C0
:100750000105204600F016FA204600F067F82C4606
:10076000002CF3D170BD0000402D0120942D0120FC
:10077000E82D01206C000020700000207400002093
:1007800072000000D427000077000000C32700009B
:10079000B32700004FF0000200B51346944696467A
:1007A000203922BFA0E80C50A0E80C50B1F1200184
:1007B000BFF4F7AF090728BFA0E80C5048BF0CC032
:1007C0005DF804EB890028BF40F8042B08BF704790
:1007D00048BF20F8022B11F0804F18BF00F8012B02
:1007E0007047754600F004FAAE4605006946534668
:1007F00020F00700854618B020B5FFF78BFDBDE857
:1008000020404FF000064FF000074FF000084FF077
:10081000000B21F00701AC46ACE8C009ACE8C00908
:10082000ACE8C009ACE8C0098D46704770B5044615
:10083000051F00F0E1F90068002C14BF446870BD8A
:10084000002C18BFAC423CBF20466468F8D3016856
:100850000A18AA4218BF456003D12A680546114408
:10086000016028684119A1421CBF6C6070BD6168BD
:10087000696021680844286070BD2DE9F04705468D
:100880000C46C86820F4201040F48000C860800640
:1008900002D5084600F0FDFAE06841F282014FF00F
:1008A000FF390140022903D0204600F09BFAB5E051
:1008B00000F42041B1F5004F0FD1C00306D56168A7
:1008C000E06A884200D80846606006E02069E0627D
:1008D0006060606900F0E7FEA061A0680022EEB2EF
:1008E00000280DDAE1688B050AD4C043A06041F40A
:1008F00090302260E0606068411C61600670A5E095
:10090000E0689046226040F40050E060206968BBD7
:10091000606900F0DAFE012704F12405A0B1A08986
:1009200010F4407F08D0E06900F0B1F9206118B1FF
:10093000E06840F4006016E0E7612561E06820F4BB
:10094000407040F480600EE0E06900F0A0F90028FB
:100950002061F1D0E06840F4006010F4407FE06076
:1009600002D140F48070E06020696060E068256931
:100970006FF0010AC1051FD56168E06A884200D89E
:100980000846411B04D02246284600F035FAF0BB49
:10099000E068010203D5E562C4E9015854E0691C2E
:1009A000E1626160E16940F48030491EC4E90210EF
:1009B00030462E70BDE8F087010202D500F4803287
:1009C0000AE06068411C61600670E0680A2E40F42D
:1009D0008030E06006D00022E16A6068814203D97D
:1009E0000B4602E00122F7E70346A7895B1B7F0560
:1009F00003D4E7699F4200DDE2B1814200D801469D
:100A0000E5620F1AC4E90158002B09DD00E005E09A
:100A100022461946284600F0EFF908B14846C9E7D2
:100A200047B1A069E5626560C01BA061E06840F065
:100A30001000E060E068000208D56168A069E56226
:100A4000491B08446560A0615046B3E73046B1E7F2
:100A500070B5C468A50713D0650211D4B2F5807FC4
:100A600009D0B2F5007F06D0B2F5806F08D101231E
:100A700000F1240106E05D1E6FF07F46B54201D310
:100A8000012070BD0161C361416024F470611143B4
:100A9000C160002070BD00002DE9F0410C46074602
:100AA0001646104600F06EF82078611C61280AD0C6
:100AB000722802D077283CD102E00125002405E00D
:100AC0000225042402E0082448F2020511F8010B73
:100AD0002B2806D0622809D011F8010C74280AD0FE
:100AE0000BE045F0030544F00204EFE745F0040590
:100AF00044F00104EAE744F010043846214600F0CF
:100B0000F7FD411C15D00021316171604FF4007177
:100B1000F560F1617061200704D5304602220021A2
:100B200000F0E4F8306D40F0010030653046BDE87B
:100B3000F0810020FBE72DE9F0410D460646104C00
:100B4000206DC10704D0410804D020F00104F7E76C
:100B500022460EE0542000F09AF807000ED0206DD7
:100B600047F001010843542120653846FFF712FE83
:100B70003A4629463046BDE8F0418DE70020D6E7E9
:100B8000402D01202DE9F04704464FF000094FF0B9
:100B9000FF37C568D4E90486A80707D0204600F0CF
:100BA00055F9304600F06CFD002802DA3846BDE801
:100BB000F087280502D54046FFF738FE4C21204635
:100BC000FFF7E8FD206D20F0010020654846EEE7C4
:100BD00010B50446AFF300802046BDE81040FFF793
:100BE00029BB10B500F07CF9BDE8104000F072B9E7
:100BF000004870473C2E012000487047442E0120D9
:100C0000704770477047704738B504460A46002061
:100C10006946AFF30080002808BF38BD024600993E
:100C2000204600F084F9012038BD012000F0D3B93E
:100C3000F8B5AFF30080054600200C46102000BF39
:100C40000646A819A0420DD9324669460020AFF3E6
:100C50000080070008BF00F0BEF90098A04218BF4E
:100C60000546C419FFF7C8FF05600746F01D20F0D0
:100C700007004619284600F053F9B44208BFF8BDF2
:100C8000A21B31463868BDE8F84000F050B970B595
:100C90000646FFF7B1FF056806F10B0020F00704D8
:100CA000B4429CBF002070BD2B466A68BAB1106880
:100CB000A04210D304F1080188423CBF506858603C
:100CC00007D35168101941601168091B0160586011
:100CD0001460101D70BD13465268002AE7D12146EA
:100CE0002846FFF791FF0028DED170BD2DE9F041C5
:100CF000044616460D464769007B80072ED03846CD
:100D000000F0E3FC50BB3EB3012E02D0022E25D1F1
:100D100004E0204600F025F905441DE0384600F0C7
:100D2000C2FCE168002841F01001E16005DA2046CC
:100D300000F058F80120BDE8F081C9030BD56268C6
:100D4000E16A914200D81146A26911442269891AC8
:100D5000814200DD08460544002D01DA0220EAE761
:100D6000E16A6068E268814206D29103E06203D5DD
:100D700022F4003141F01002A6690027AE4213DCD4
:100D8000E16A814201D90B4600E0034603EB060C01
:100D90002369ACEB030CAC4506DD814201D98C46DE
:100DA00000E084469C4505D1A760276042F0200002
:100DB000A5620DE0AD1BE669AE1B8142A66000D9BD
:100DC0000846C01A281A20605819606022F02000D6
:100DD00003490840E060002084F84870ABE7000059
:100DE000BFCFD7FFC16821F4001141F08001C1607D
:100DF00000218160016070472DE9F047814614466B
:100E00000E464FF0FF383248D5685769054209D081
:100E10003846A16900F0A0FC002811DB2C48C04333
:100E20000540E5602B4632464946384600F0AAFCAC
:100E3000A16920F00042B21A11440028A16103D038
:100E40002046FFF7CFFF4046BDE8F08770B5044667
:100E50000569C06A6168884200D80846E16821F4E3
:100E60002011E160C90312D5A84208D02246411BD7
:100E70002846FFF7C1FF10B14FF0FF3070BD0020D2
:100E8000E562C4E90150E06820F48030E0600020B1
:100E900070BD10B50446C06820F02000E060A16A73
:100EA000A06988420DD02046FFF7D0FFE06820F40B
:100EB000405040F01000E060A06AA0612069E0624C
:100EC000606044F24001E0688843E06010BD0000CB
:100ED00010000200002801D000F01CB8704700008C
:100EE00010B5014602A000F05DF8012010BD000021
:100EF00053494752545245443A20526564697265D9
:100F000063743A2063616E2774206F70656E3A20B7
:100F10000000000001491820ABBEFEE726000200D9
:100F200000210160C0E9011070471020704703469E
:100F300040688C46002818BF88423CBF0346406882
:100F4000F8D318681844884207D00CF1030020F049
:100F50000700001D411A521A0146081D0A60FFF7DA
:100F600065BC10B50146C268900703D0900607D54E
:100F7000886A0AE000F03EF801210160881E10BD79
:100F80008B69486818440B69C01A91F848301BB146
:100F900091F84910401A10BD1103FCD50028FADD64
:100FA000401E10BD70B505460C460A2000E06D1CC1
:100FB00000F018F835B128780028F8D102E0641C58
:100FC00000F010F814B120780028F8D1BDE8704086
:100FD0000A2000F007B810B500F010F8BDE8104086
:100FE000FFF778BF08B569468DF800000320ABBE57
:100FF00008BD7047004870473C2E012010B50128FD
:1010000005D0002103A0FFF7CDFF012010BD09A1ED
:10101000F8E7000053494752544D454D3A204F756B
:1010200074206F662068656170206D656D6F7279E0
:10103000000000003A2048656170206D656D6F7298
:101040007920636F727275707465640038B500241E
:101050001048006840F001000E4908600EA0FFF73C
:101060006BF900236A4617491748006801F024FC11
:10107000044624B915A0FFF75FF900F0E1FA0098E3
:1010800038B14FF0805017490860BFF34F8FBFF35E
:101090006F8F38BD143C0140427574746F6E2050E0
:1010A0007265737365642C2053656E64696E672086
:1010B0006D65737361676520746F20517565756523
:1010C000210A0000040000200000002053656E6427
:1010D000696E67206661696C6564205461736B2D6D
:1010E00031210A0004ED00E0F8B502460B46002568
:1010F000002400200021DCE0012606FA01F51E682C
:1011000006EA0504AC4273D15E68022E02D05E6826
:10111000122E13D1CF0802F1200656F827004E07F1
:10112000F70E0F26BE40B0434F07FF0E1E69BE40AC
:101130003043CF0802F1200646F8270010684F0020
:101140000326BE40B0431E7906F003064F00BE40A2
:10115000304310605E68012E08D05E68022E05D014
:101160005E68112E02D05E68122E13D190684F0077
:101170000326BE40B0434F00DE68BE40304390605F
:10118000506801268E40B0431E79C6F300168E408B
:1011900030435060D0684F000326BE40B0434F003C
:1011A0009E68BE403043D0605E6806F08056B6F15F
:1011B000805F7DD100BF00260096404E366846F421
:1011C00080463E4F3E603E46366806F480460096B6
:1011D00000BF00BF3A4E8F0856F827008E07370F22
:1011E0000F26BE40B043374EB24202D1002624E063
:1011F0005EE0354EB24201D101261EE0334EB242CE
:1012000001D1022619E0324EB24201D1032614E088
:10121000304EB24201D104260FE02F4EB24201D12E
:1012200005260AE02D4EB24201D1062605E02C4EDD
:10123000B24201D1072600E008268F073F0FBE40CB
:1012400030431F4E8F0846F82700264E3068A043D3
:101250005E6806F48036B6F5803F00D12043214E0B
:101260003060361D3068A0435E6806F40036B6F57F
:10127000003F00D120431B4E361D3060361D3068C4
:10128000A0435E6806F48016B6F5801F00D12043A7
:10129000144E08363060361D3068A0435E6806F490
:1012A0000016B6F5001F00D120430E4E0C363060FC
:1012B000491C1029FFF420AFF8BD0000443802405B
:1012C00008380140000002400004024000080240CB
:1012D000000C0240001002400014024000180240BE
:1012E000001C0240003C01400AB1816101E00B0496
:1012F0008361704710B50D48006840F400700B49D9
:1013000008600846006840F480600860084600688D
:1013100040F480700860032000F05EF80F2000F0B9
:1013200007F800F019F8002010BD0000003C024052
:1013300070B50446074800684FF47A71B0FBF1F5C8
:10134000284600F077F800222146501E00F005F8EC
:10135000002070BD6800002070472DE9F05F8046D6
:101360000D461646002700F04FF9074639462A4633
:10137000334601F00700C0F1070ABAF1040F02D9A1
:101380004FF0040A01E0C0F1070AD14600F1040A57
:10139000BAF1070F02D24FF0000A01E0A0F1030AF0
:1013A000D4464FF0010A0AFA09FAAAF1010A0AEA38
:1013B000020A0AFA0CFA4FF0010B0BFA0CFBABF124
:1013C000010B0BEA030B4AEA0B042146404600F0EE
:1013D00023F9BDE8F09F000000BF00F00702064BB4
:1013E00019684FF6FF031940044B0B4343EA0221EF
:1013F000014B196000BF70470CED00E00000FA05DA
:10140000014800687047000068000020042808D1E7
:101410004FF0E021096941F004014FF0E022116131
:1014200007E04FF0E021096921F004014FF0E022CC
:101430001161704770B504462546681EB0F1807F83
:1014400001D301200FE0681E4FF0E02148610F2119
:101450004FF0FF3000F0E0F800204FF0E02188610D
:1014600007200861002070BD0A49096801F00101E8
:1014700071B108498039096801F0010141B100BF2B
:101480004FF0604109680029FAD04FF060421070B7
:1014900070470000800E00E000B587B000BF00205C
:1014A00001900D48006840F008000B4908600846AC
:1014B000006800F00800019000BF00BF4FF47040CA
:1014C00002900120039000200490059002A9034897
:1014D000FFF70AFE07B000BD30380240000C0240A2
:1014E00010B500BF502080F31188BFF34F8FBFF3BA
:1014F0006F8F00BF01F0E2FA18B14FF0805004493D
:10150000086000BF002080F3118800BF10BD0000FC
:1015100004ED00E010B592B000BF002000901F481D
:10152000006840F080501D4908600846006800F0DF
:101530008050009000BF00BF00BF002000901848FE
:10154000006840F48040164908600846006800F4CE
:101550008040009000BF00BF02200690012009904B
:1015600010200A9000200C900F2001900020029083
:10157000039004900590FFF743FF4FF47A71B0FB9E
:10158000F1F42046FFF756FF0420FFF73FFF00224B
:101590001146501EFFF7E1FE12B010BD4038024068
:1015A000007000401448006840F470001249086060
:1015B0001248006840F001001049086000200F49FF
:1015C000083108600D4800680D4908400B49086063
:1015D0000C48091D0860081F006820F48020091FBE
:1015E0000860002005490C3108604FF00060024996
:1015F000803908607047000088ED00E00038024044
:10160000FFFFF6FE1030002402480068C0F30220FD
:10161000704700000CED00E010B5002804DB0A075D
:10162000130E054A135406E00A07140E034A00F08D
:101630000F031B1FD45410BD00E400E018ED00E0C0
:1016400000BF00BF00BFBFF34F8F00BF00BF00BF90
:101650000948006800F4E06008490843001D064995
:10166000086000BF00BF00BFBFF34F8F00BF00BFC7
:1016700000BF00BF00BFFDE70CED00E00000FA0571
:1016800001466FF40040084420B1012804D002282C
:1016900006D103E0002070470020FCE70020FAE7B5
:1016A0004FF0FF30F7E701466FF40040084420B1E7
:1016B000012804D0022806D103E000207047002052
:1016C000FCE70020FAE70020F8E701466FF400404D
:1016D000084420B1012804D0022806D103E00120EB
:1016E00070470120FCE70120FAE70020F8E700003E
:1016F00070B504460D4614B94FF0FF3070BD207828
:101700003A281AD10EA12046FEF7CCFE10B948F2B5
:101710000100F3E70CA12046FEF7C4FE10B948F221
:101720000200EBE70AA12046FEF7BCFE10B948F222
:101730000300E3E74FF0FF30E0E74FF0FF30DDE775
:101740003A535444494E00003A5354444F555400C0
:101750003A5354444552520002466FF4004010443C
:1017600020B1012805D0022809D105E04FF0FF3053
:1017700070474FF0FF30FBE74FF0FF30F8E74FF0D6
:10178000FF30F5E72DE9F04106460C461546984630
:101790006FF40040304420B1012806D0022811D156
:1017A0000EE04FF0FF30BDE8F08105E014F8017B5A
:1017B000384600F01BFC6D1E002DF7D10020F2E72B
:1017C0000020F0E74FF0FF30EDE7000008B5002003
:1017D000009000BF012211030D48FFF785FD00BFF7
:1017E00002E00098401C00900A4900988842F8D313
:1017F00000224FF480510648FFF776FD00BF02E05B
:101800000098401C0090034900988842E2D2F7E714
:10181000000C0240A08601001548006840F001005D
:10182000134908601348006820F00100114908605E
:101830000846006820F0020008600846406820F072
:10184000010048600846806840F001008860084652
:10185000806820F0020088600846C06820F001001F
:10186000C8600846C06840F00200C86070470000C9
:10187000303802400000024010B52448006840F4AF
:101880008040224908602248006820F00100204979
:1018900008600846006820F00200086008460068FA
:1018A00020F0040008600846006820F00800086086
:1018B0001848006840F001001649086015480830D3
:1018C000006840F001001349083108600620014615
:1018D000002804DB0A07130E0F4A135406E00A0718
:1018E000140E0E4A00F00F031B1FD45400BF062035
:1018F000002809DB00F01F020121914042099200FB
:1019000002F1E022C2F8001100BF10BD44380240CD
:1019100008380140003C014000E400E018ED00E020
:101920008A68002A01DCFEF7A8BF521E8A604A6856
:10193000C0B2531C4B601070704700001CB5FFF71D
:10194000D9FCFFF7E7FDFFF7A7FDFFF765FFFFF7FE
:1019500093FF0020012103463222CDE9001011A19E
:10196000134801F06BF800220421022000F04AFE27
:10197000104908600846006860B100200221034653
:10198000C822CDE900100CA10D4801F057F800F075
:1019900009FD04E00BA0FEF7CFFC00BFFEE700202E
:1019A0001CBD0000636865636B5461736B000000CD
:1019B000CD1700080000002052785461736B0000BE
:1019C000F52100084661696C656420746F206372BC
:1019D0006561746520517565756521203A2D280A69
:1019E000000000002DE9F04105460E461C4807683E
:1019F0001C480068001D00F0FFFA50B91948006843
:101A000090F82C1001208840174909688143164836
:101A10000160681C38B936B112480168091D1348C5
:101A200000F028FB1AE07C190E4800684460BC42B4
:101A300007D20C480168091D0D48006800F000FB42
:101A40000CE008480168091D0A48006800F0F8FA2F
:101A500009480068844201D207480460BDE8F0816B
:101A60001C00002008000020200000202C01002085
:101A7000100000200C0000203800002010B50446A3
:101A800000F004FB24480068401C234908602348F8
:101A9000006840B9214804600846006801280DD15B
:101AA00000F066F90AE01E48006838B91B48006873
:101AB000C06AE16A884201D8184804601948006881
:101AC000401C1849086008460068206494F82C10EF
:101AD0000120884014490968084313490860E16AF5
:101AE00001EB8101114A02EB8100211D00F0C2FAD5
:101AF00000F0F6FA0A48006868B108480068C06A51
:101B0000E16A884207D24FF0805009490860BFF36C
:101B10004F8FBFF36F8F10BD18000020080000200A
:101B20002400002034000020200000207800002045
:101B300004ED00E070B523E000F078FC1348006885
:101B400008B9012000E00020054601F00BF9BDB9FD
:101B500000F09CFA0D48C068C468201D00F04CFAE3
:101B60000B480068401E0A4908600A480068401E89
:101B70000849086000F0B4FA204600F060F800BFA1
:101B8000044800680028D7D170BD0000180100206B
:101B9000180000201400002070B504460D46206C8B
:101BA00070B1216CE0680844E0606168E0688842D8
:101BB00001D32068E0602846226CE168FEF725FC2E
:101BC00070BD2DE9F04104460F4615464FF0000860
:101BD000A66B206C40B9206860BB606801F012F809
:101BE00080460020606025E07DB93946226CA068FF
:101BF000FEF70BFC216CA0680844A060D4E901103A
:101C0000884217D32068A06014E03946226CE0684F
:101C1000FEF7FBFB216CE068401AE0602168E06899
:101C2000884203D2216C6068401AE060022D01D125
:101C300006B1761E701CA0634046BDE8F08110B569
:101C40000446206B00F06AFA204600F067FA10BDE7
:101C5000094A22F00700094A10600022074B5A6027
:101C6000074A084B5A6000221A600146044A4A603B
:101C70001A460A6070470000480100204400002016
:101C8000F82B01004C00002000BFFFF753FFFCE7DA
:101C90002DE9F04106460D4617469846069C0DB9BB
:101CA000246000E02760E66325640121204600F0FF
:101CB000B7FD84F84C80BDE8F0812DE9F05F8246E5
:101CC0000F4690469B460A9E0C9C4FEA8801A5222F
:101CD000206BFEF7DFFBA8F10100216B01EB80090F
:101CE00029F0070909F0070008B9012000E00020E9
:101CF00050B900BF502080F31188BFF34F8FBFF35E
:101D00006F8F00BF00BFFEE7002507E0795D04F19B
:101D100034004155785D00B902E06D1C0A2DF5D301
:101D200000BF00213D200155052E00D30426E662A8
:101D3000A6640020E064201D00F07FF904F1180083
:101D400000F07BF92461C6F10500A0616462002007
:101D5000206584F854005A465146484600F030F950
:101D600020600B9808B10B980460BDE8F09F00005C
:101D700010B5002407E004EB84010F4A02EB810058
:101D800000F04EF9641C052CF5D30C4800F048F91E
:101D90000B4800F045F90B4800F042F90A4800F002
:101DA0003FF90A4800F03CF9044809490860044832
:101DB0000849086010BD000078000020DC00002009
:101DC000F000002004010020180100202C01002058
:101DD0000C0000201000002070B5054600F056F9F8
:101DE000A86B08B9012400E0002400F079F920462E
:101DF00070BD00000A490968096809B9012100E0BD
:101E0000002121B14FF0FF31064A116006E004497C
:101E10000968C968C868034A4168116070470000D2
:101E20000C000020380000200E480068401C08B953
:101E3000012000E0002050B900BF502080F311883D
:101E4000BFF34F8FBFF36F8F00BF00BFFEE700BF30
:101E5000502080F31188BFF34F8FBFF36F8F00BF07
:101E600000BFFEE75C00002070B5044600F00EF9EC
:101E700094F9455010E0606A08B9012000E00020A4
:101E800038B904F1240000F021FF18B100F0F8F98E
:101E900000E003E0681E45B2002DECDC00BFFF202F
:101EA00084F8450000F01CF900F0F0F894F9445073
:101EB00010E0206908B9012000E0002048B904F1D1
:101EC000100000F003FF08B100F0DAF9681E45B217
:101ED00000E001E0002DECDC00BFFF2084F84400AE
:101EE00000F0FEF870BD00002DE9F04104464FF00F
:101EF000000800F09BFA2548006820B9FFF7A8FE0B
:101F000001202249086044B1083404F0070020B1E0
:101F100004F00700C0F108000444002C31D01C4834
:101F200084422ED21B4F3846056801E02F462D68AB
:101F30006868A04202D228680028F7D11648854276
:101F40001FD0386800F10808286838606868001BEE
:101F5000102810D92E196868001B70606C607168B9
:101F60000C4800E00068026852688A42FAD30268AE
:101F70003260066000BF094968680968081A0749A5
:101F8000086000F0EFFE4046BDE8F08158000020F8
:101F9000F82B0100440000204C00002054000020D9
:101FA0000648006830B10549096801F14C00C96C68
:101FB000491C0160014800687047000008000020CB
:101FC000001F4FF080730360001F21F001030360C6
:101FD000001F054B036014380260001F6FF00203FE
:101FE0000360203870470000291E000800B5034632
:101FF0001846FFF739FA00BD01460A69D1E90130F8
:102000009860D1E9010358605068884201D188681E
:102010005060002008611068401E10601068704712
:1020200000F1080141604FF0FF31816000F10801CB
:10203000C1600161002101607047002101617047AA
:1020400010B502460B685C1C0CB9106907E002F180
:10205000080000E04068446824689C42FAD944685B
:102060004C604C68A160886041600A611468641C1F
:10207000146010BD42684A6093688B609368596031
:102080009160086103685B1C0360704700BF5020CB
:1020900080F31188BFF34F8FBFF36F8F00BF0E48DF
:1020A0000068401C0C49086008460068012812D1ED
:1020B0000A480068C0B208B9012000E0002050B909
:1020C00000BF502080F31188BFF34F8FBFF36F8F95
:1020D00000BF00BFFEE770475C00002004ED00E099
:1020E0000D48006850B900BF502080F31188BFF33D
:1020F0004F8FBFF36F8F00BF00BFFEE70648006839
:10210000401E054908600846006820B9002080F399
:10211000118800BF00BF70475C00002070B5064604
:102120003546B6B1083D2C4600F080F96168094893
:1021300000E00068026852688A42FAD302682260AE
:10214000046005496068096808440349086000F0B4
:1021500009FE70BD440000205400002006480068BD
:102160004FF47A71B0FBF1F0401E4FF0E02148616E
:1021700007200861704700006800002070B5FEF776
:10218000B7F80446102C16D304F1E02090F8F05371
:1021900015480078854201DB012000E0002050B99D
:1021A00000BF502080F31188BFF34F8FBFF36F8FB4
:1021B00000BF00BFFEE70D48006800F4E0600C4976
:1021C0000968884201D8012000E0002050B900BF12
:1021D000502080F31188BFF34F8FBFF36F8F00BF84
:1021E00000BFFEE770BD0000600000200CED00E0C5
:1021F000640000201CB500200190002400BF0023D3
:102200004FF4FA7269461248006800F027FA044653
:102210004CB910A0FEF790F801224FF4405113483A
:10222000FFF762F8EBE712A00099FEF785F80122AC
:102230004FF440410D48FFF757F800BF02E0019806
:10224000401C01900D4901988842F8D3FFF7F8F936
:10225000000000204177616974696E67204D6573E5
:10226000736167652E2E2E0A00000000000C0240EC
:102270005278204D73673A2025730A00F6083D0016
:1022800001200149086070472C00002070B5044609
:102290000D4654B900BF502080F31188BFF34F8F13
:1022A000BFF36F8F00BF00BFFEE70548016818311C
:1022B0002046FFF7C5FE01212846FFF793FB70BDBE
:1022C0000800002070B505462C46002D4BD026494D
:1022D000E06A0968C96A884245D2A06900F00040F6
:1022E00028B921480068C06AC0F10500A061E16A10
:1022F00001EB81011D4A02EB81016069884201D135
:10230000012000E0002050B3201DFFF775FE78B9D2
:10231000E06A00EB8000154951F8200040B994F8BC
:102320002C1001208840124909688143104801603F
:102330000D480068C06AE06294F82C1001208840C3
:102340000B49096808430A490860E16A01EB810109
:10235000064A02EB8100211DFFF78CFE03E00248D4
:102360000068C06AE06270BD0800002078000020AC
:102370002000002050B900BF502181F31188BFF325
:102380004F8FBFF36F8F00BF00BFFEE7034909689F
:102390000160034909684160704700003000002077
:1023A0001C0000201CB51A4800210B468222CDE9F2
:1023B000001018A1194800F041FB0446012C15D16A
:1023C00000BF502080F31188BFF34F8FBFF36F8F92
:1023D00000BF4FF0FF30124908600120114908602A
:1023E00000201149086000F06FF810E0601C08B18F
:1023F000012000E0002050B900BF502080F3118878
:10240000BFF34F8FBFF36F8F00BF00BFFEE71CBD50
:102410003C00002049444C4500000000891C000895
:1024200038000020240000201C0000200248006822
:10243000401C014908607047400000201D480068AA
:1024400018B101201C49086032E000201A490860D8
:102450001A480068B0FA80F0C0F11F0101EB81005A
:10246000174A52F8200008B1012000E0002050B9BE
:1024700000BF502080F31188BFF34F8FBFF36F8FE1
:1024800000BF00BFFEE701EB81020D4B03EB8200B2
:1024900042685268426000F108024368934202D1E8
:1024A0004268526842604268D268064B1A6000BFB8
:1024B00070470000400000202C0000202000002079
:1024C00078000020080000201CB5474800684749F4
:1024D000884201D0012000E0002050B900BF502008
:1024E00080F31188BFF34F8FBFF36F8F00BF00BF22
:1024F000FEE73D4800683D49491E884201D0012061
:1025000000E0002050B900BF502080F31188BFF3D5
:102510004F8FBFF36F8F00BF00BFFEE734490846FF
:1025200000780190FF200A4610700846007800905D
:102530009DF8000000F0F0009DF80020904201D1CD
:10254000012000E0002050B900BF502080F3118826
:10255000BFF34F8FBFF36F8F00BF00BFFEE79DF843
:10256000000000F05000234A10700720224A10603B
:1025700009E021480068401E1F4A10609DF80000D5
:102580004006000E00909DF8000000F080008028BA
:10259000EFD0194800680002174A10601046008802
:1025A00000F4E0601060124A019810700E4820306C
:1025B000006840F470000C4920310860084600684B
:1025C00040F070400860FFF7C9FD00200B4908602B
:1025D000FDF756FE0A48006840F040400849086090
:1025E000FDF73EFE00201CBD00ED00E071C20F4172
:1025F00000E400E060000020640000205C00002097
:1026000034EF00E02DE9F84305460E4690460DB143
:10261000012000E0002050B900BF502080F3118855
:10262000BFF34F8FBFF36F8F00BF00BFFEE70EB940
:10263000002701E005FB06F707F15000FFF754FC07
:10264000044644B104F1500943464A4631462846FF
:102650000094FFF71DFB2046BDE8F8832DE9FF47F6
:1026600082B005460E461F464FF0000A2C4654B96C
:1026700000BF502080F31188BFF34F8FBFF36F8FDF
:1026800000BF00BFFEE70EB9206C08B9012000E0D2
:10269000002050B900BF502080F31188BFF34F8F46
:1026A000BFF36F8F00BF00BFFEE700F0F7F908B976
:1026B000049808B9012000E0002050B900BF502064
:1026C00080F31188BFF34F8FBFF36F8F00BF00BF40
:1026D000FEE700BFFFF7DAFCD4F83890B9F1000F3D
:1026E0003DD0D4F80C8031462046FFF755FADFB9CB
:1026F000A9F10100A063206810B9FFF751FC6060E8
:10270000206908B9012000E0002010BB04F110008E
:1027100000F0DCFAE8B14FF0805040490860BFF3A8
:102720004F8FBFF36F8F14E0C4F80C80606A08B954
:10273000012000E0002060B904F1240000F0C6FA96
:1027400038B14FF0805035490860BFF34F8FBFF369
:102750006F8FFFF7C5FC012006B0BDE8F087049835
:1027600018B9FFF7BDFC0020F6E7BAF1000F04D15D
:102770006846FFF7FFFD4FF0010AFFF7B1FCFFF7D6
:1027800055FEFFF783FC94F94400401C10B900206B
:1027900084F8440094F94500401C10B9002084F8E6
:1027A0004500FFF79DFC04A9684600F001F940BB15
:1027B0002046FFF711FBF0B1206830B9FFF766FC47
:1027C0006068FFF77FFDFFF78BFC04F1240004999C
:1027D000FFF75CFD2046FFF747FB00F0C3FA002837
:1027E0007FF478AF4FF080500C490860BFF34F8FF3
:1027F000BFF36F8F6EE72046FFF736FB00F0B2FAAB
:1028000068E72046FFF730FB00F0ACFA2046FFF700
:10281000E3FA0028EED000209EE7000004ED00E07F
:1028200070B505460E462C4654B900BF502080F3C3
:102830001188BFF34F8FBFF36F8F00BF00BFFEE75C
:10284000FFF724FCD4E90F12206801FB020060604E
:102850000020A0632068A060E06B401E226C21680D
:1028600000FB0210E060FF2084F8440084F845007B
:102870009EB9206908B9012000E00020A8B904F140
:10288000100000F023FA80B14FF080500949086031
:10289000BFF34F8FBFF36F8F07E004F11000FFF716
:1028A000BFFB04F12400FFF7BBFBFFF719FC01207D
:1028B00070BD000004ED00E02DE9F05F07468A4698
:1028C00090461E463C4654B900BF502080F3118804
:1028D000BFF34F8FBFF36F8F00BF00BFFEE7BAF1AA
:1028E000000F01D1206C08B9012000E0002050B990
:1028F00000BF502080F31188BFF34F8FBFF36F8F5D
:1029000000BF00BFFEE7022E02D1E06B012801D11B
:10291000012000E0002050B900BF502080F3118852
:10292000BFF34F8FBFF36F8F00BF00BFFEE7FFF70E
:1029300025FC00BF5021EFF3118081F31188BFF314
:102940004F8FBFF36F8F00BF0546A06BE16B8842CE
:1029500001D3022E23D194F945B032465146204688
:10296000FFF72FF90BF1010088B9606A08B901205F
:1029700000E0002080B904F1240000F0A7F958B16C
:10298000B8F1000F08D00120C8F8000004E00BF1F6
:10299000010040B284F845004FF0010901E04FF01A
:1029A000000900BF85F3118800BF4846BDE8F09FCD
:1029B00070B504460D4654B900BF502080F311880D
:1029C000BFF34F8FBFF36F8F00BF00BFFEE755B956
:1029D00000BF502080F31188BFF34F8FBFF36F8F7C
:1029E00000BF00BFFEE7FFF751FB124803682868ED
:1029F000401C08B9002619E00F4920680968884280
:102A000004D06068984201D801260FE06068181A67
:102A10002968884209D228686168591A401A2860D2
:102A20002046FFF7A7FC002600E00126FFF758FB31
:102A3000304670BD1C000020300000202DE9FF4F03
:102A400085B0804689461746DDE912ABB800FFF72E
:102A50004BFA064656B15820FFF746FA04460CB129
:102A6000266304E03046FFF759FB00E000247CB108
:102A70000020CDE900ABCDE902403A464946404648
:102A8000089BFFF71AF92046FEF7F8FF012501E041
:102A90004FF0FF35284609B0BDE8F08F05490968B9
:102AA00009B9012005E00449096809B9022000E0DC
:102AB0000020704724000020400000202DE9F04154
:102AC0004FF0000844480068002877D14348006868
:102AD000451C4248056015BB41480068006808B9BC
:102AE000012000E0002050B900BF502080F3118881
:102AF000BFF34F8FBFF36F8F00BF00BFFEE73848B3
:102B00000768384800683649086036480760364824
:102B10000068401C34490860FFF76CF900BF334877
:102B2000006885423CD300BF2D480068006808B9A2
:102B3000012000E0002020B14FF0FF302B49086059
:102B40002DE027480068C068C4686668B54202D2B4
:102B50002648066023E0201DFFF74EFAA06A18B150
:102B600004F11800FFF748FA94F82C10012088406F
:102B70001F49096808431E490860E16A01EB8101A9
:102B80001C4A02EB8100211DFFF774FA1A49E06A22
:102B90000968C96A8842C7D34FF00108C4E700BF7B
:102BA00015480068C06A00EB8000124951F8200007
:102BB000012801D94FF0010805E0FFE70F48006840
:102BC000401C0E4908600E48006808B14FF001082B
:102BD0004046BDE8F0810000400000201C000020BD
:102BE0000C000020100000203000002038000020E1
:102BF000200000207800002008000020280000208D
:102C00002C00002070B505462C460026002D55D01E
:102C10002B480068844201D1012000E0002050B917
:102C200000BF502080F31188BFF34F8FBFF36F8F29
:102C300000BF00BFFEE7E06C50B900BF502080F33A
:102C40001188BFF34F8FBFF36F8F00BF00BFFEE748
:102C5000E06C401EE064A16CE06A88422ED0E06C1B
:102C600060BB201DFFF7C8F978B9E06A00EB80006F
:102C7000144951F8200040B994F82C1001208840E4
:102C800011490968814310480160A06CE062E06A64
:102C9000C0F10500A06194F82C10012088400A4979
:102CA0000968084308490860E16A01EB8101054AA7
:102CB00002EB8100211DFFF7DDF90126304670BDD2
:102CC00008000020780000202000002070B5064693
:102CD000F068C46854B900BF502080F31188BFF376
:102CE0004F8FBFF36F8F00BF00BFFEE704F11800E6
:102CF000FFF782F915480068A8B9201DFFF77CF995
:102D000094F82C10012088401149096808431049A3
:102D10000860E16A01EB81010E4A02EB8100211D8E
:102D2000FFF7A8F904E004F118010B48FFF7A2F936
:102D30000A49E06A0968C96A884204D90125012064
:102D40000749086000E00025284670BD40000020CB
:102D5000200000207800002004010020080000204E
:102D60002C00002070B5002400263648006850B9B9
:102D700000BF502080F31188BFF34F8FBFF36F8FD8
:102D800000BF00BFFEE7FFF781F92E480068401E34
:102D90002C4908600846006800284FD12A4800687E
:102DA00000284BD024E02948C068C46804F118000A
:102DB000FFF722F9201DFFF71FF994F82C100120CE
:102DC000884023490968084321490860E16A01EB0A
:102DD0008101204A02EB8100211DFFF74BF91E49BA
:102DE000E06A0968C96A884202D301201B49086069
:102DF0001648006808B9012000E000200028D2D061
:102E00000CB1FEF7F7FF1648056865B100BFFFF784
:102E100055FE10B10120114908606D1E002DF6D13C
:102E200000200F4908600D48006838B101263007BE
:102E30000C490860BFF34F8FBFF36F8FFFF750F956
:102E4000304670BD40000020180000200401002022
:102E50002000002078000020080000202C00002026
:102E60002800002004ED00E04FF04070E1EE100A71
:102E700070473A535444494E003A5354444F5554C2
:102E8000003A535444455252000000004D6573739C
:102E90006167652072656365697665642046726F57
:102EA0006D20427574746F6E204953522E2E2E0081
:102EB000D02E00080000002078000000C4010008A7
:102EC000482F00087800002028340100E0010008A5
:102ED000000000008C2E0008000000000000000030
:102EE00000000000000000000000000000000000E2
:102EF00000000000000000000000000000000000D2
:102F000000000000000000000000000000000000C1
:102F100000000000000000000000000000000000B1
:102F200000000000F82B010000000000AAAAAAAAD5
:102F300000000000000000000024F4000000000079
:082F4000000000000000000089
:040000050800018965
:00000001FF
